:03000000020C22CD
:0100030032CA
:03000B00020515D6
:0100130032BA
:01001B0032B2
:0100230032AA
:03002B0002053596
:10002E00C0E0C0D0C000C001C002E4F53DF53EF511
:10003E003FF540F5417A20E538A2E779047835E6B8
:10004E0033F608D9FA7905783DE636D4F608D9F9AB
:10005E00DAE5D002D001D000D0D0D0E022C0E0C08E
:10006E00D0C000C001C002E4F53DF53EF53FF540BD
:10007E00F5417A20E538A2E779047835E633F608BB
:10008E00D9FA7905783DC0D0E6243320E70224D092
:10009E0020E30224FDD0D033F608D9EADAD6D00216
:1000AE00D001D000D0D0D0E022C0E0C0D0C000C07F
:1000BE0001C0027A207905C37841E613C0D030E73B
:1000CE000224D030E30224FDF618D0D0D9EC790406
:1000DE007838E613F618D9FADADBD002D001D00060
:1000EE00D0D0D0E022C0E0C0D0E5352539F535E5D9
:1000FE0036353AF536E537353BF537E538353CF5E7
:10010E0038D0D0D0E022C0E0C0D0C3E5359539F567
:10011E0035E536953AF536E537953BF537E53895BD
:10012E003CF538D0D0D0E022C0E0C0D0C3E5359544
:10013E0039E536953AE537953BE538953C9201D051
:10014E00D0D0E022C0E0C0D0C3E5399535E53A9570
:10015E0036E53B9537E53C95389201D0D0D0E0227C
:10016E00C0E0C0D0C201C3E53995357014E53A95AB
:10017E0036700EE53B95377008E53C95387002D227
:10018E0001D0D0D0E02212016E20010302015222D2
:10019E0012016E20010302013622C0E0C0F0C0D071
:1001AE00C000C001C002C003E5358539F0A4F8A92E
:1001BE00F0E5368539F0A429F9E435F0FAE5358510
:1001CE003AF0A429F9E5F03AFAE433FBE53785393C
:1001DE00F0A42AFAE5F03BFBE536853AF0A42AFABC
:1001EE00E5F03BFBE535853BF0A42AFAE5F03BFB59
:1001FE00E5388539F0A42BFBE537853AF0A42BFBC7
:10020E00E536853BF0A42BFBE535853CF0A42BFBB6
:10021E008B388A3789368835D003D002D001D0008A
:10022E00D0D0D0F0D0E022C0E0C0D0C000C001C01D
:10023E0002C003C0047C20E4F8F9FAFBC3E53533B1
:10024E00F535E53633F536E53733F537E53833F53D
:10025E0038E833F8E933F9EA33FAEB33FBC3E895C0
:10026E0039E9953AEA953BEB953C4013E89539F818
:10027E00E9953AF9EA953BFAEB953CFB433501DCFF
:10028E00BBD004D003D002D001D000D0D0D0E02219
:10029E00C00078B10000D8FCD00022C000C00179A7
:1002AE002D78A6D8FED9FADAF6D001D00022D29453
:1002BE0012029EC29422A2E792B5A2E692B4A2E5E1
:1002CE0092B3A2E492B21202BC12029EA2E392B5C3
:1002DE00A2E292B4A2E192B3A2E092B21202BC22C6
:1002EE00D2920202C4C2920202C4C294C293743366
:1002FE001202F374331202F374321202F3742812E0
:10030E0002F3740C1202F374011202F3C0027A02A9
:10031E001202A9D00222E49360061202EEA380F626
:10032E0022444044800202F3C0E0E8C4540F44303B
:10033E001202EEE8540F44301202EED0E022C0E07A
:10034E00E8C4540F4430120362E8540F44301203D1
:10035E0062D0E0223099FDC299F59922E4936006AD
:10036E00120362A380F6225265666C6F774F766534
:10037E006E4374726C6C7200536F616B54656D706A
:10038E003A2078787878204300536F616B54696D0A
:10039E00653A20787820202053005265666C6F777E
:1003AE0054656D703A7878787843005265666C6F54
:1003BE007754696D653A20787820530050726F63D8
:1003CE0065737320636F6D706C6574650054696D31
:1003DE00653A2078783A78782020202020005465DD
:1003EE006D703A20787878782020202020200056D2
:1003FE00657273696F6E20312E312E343262200099
:10040E0057697265206E6F7420696E204F76656E27
:10041E000050726F636573732041626F727465640E
:10042E0021004F56454E204F5645524845415421C6
:10043E002121004F70656E204F76656E20446F6FE0
:10044E00722E2E004E6174204C696D617069636866
:10045E0061742020004172736C616E204268617479
:10046E007469202020004D696B65205975616E20DE
:10047E0020202020202000496E746973686172204C
:10048E0049736C616D20200048616D7A612041686E
:10049E006D656420202020200043656D204B617324
:1004AE0070692020202020202000466562203136F1
:1004BE002C20323031362020202000454C45432060
:1004CE00323931205465616D204145004C4F434B0C
:1004DE00000D0A00D2A2C2A322C0E079007A08E879
:1004EE0033F892A1D2A3A2A2E933F9C2A3DAF0D0D3
:1004FE00E022E58954F04401F589758CEA758AE8A5
:10050E00D2A9D28CD2AF22C28C85548C85558AD278
:10051E008CB2B73275C80075CBA975CA9AE4F5309E
:10052E00F531D2ADD2CA22C2CFC0E0C0D00530E57F
:10053E003070020531E530B4E84DE531B40348D2F0
:10054E000085525E85535F1205B9120677E5562473
:10055E0001D4F556120695120AD6E4F530F531E5BA
:10056E0032E5462401D4B46010E4F546E547240193
:10057E00D4B4600DE4F547800EC3D4F532F5468051
:10058E0006C3D4F5478000D0D0D0E03279DE78A60D
:10059E00D8FED9FAC28E53890F43892043878075BE
:1005AE008DF4758BF4D28E75985222C2A0780112FA
:1005BE0004E778801204E7E95403F5347855120401
:1005CE00E78933D2A0753800753700853436853308
:1005DE0035753940753A4B753B4C753C001201A888
:1005EE007539F4753AFF753BBF753C0012023575CF
:1005FE00391C753A00753B00753C001200F3853DC1
:10060E0052853E5312002EC000A83E12034CD0005D
:10061E00C000A83D12034CD0009004DF12036A22E2
:10062E00E5523473D4F55CE55CE5533402D4F55DE4
:10063E0022E5609409C20E5002D20EC3200E13C0E2
:10064E00E0740D14120331D0E0C0E074441202EED7
:10065E00D0E0300E13C0E0740D14120331D0E0C0A0
:10066E00E074201202EED0E022C3E552955ED4F57E
:10067E0060E553955FF561D20C500AC3E55E955265
:10068E00D4F560C20CC322E420052A2004152003F1
:10069E000A85575985585AC283D203E559700CD230
:1006AE0004D283E55A700AC203C2049401F559803C
:1006BE00049401F55A227AAA79FA78A6D8FED9FAC4
:1006CE00DAF622200D13C0E0740E14120331D0E0BE
:1006DE00C0E074201202EED0E0300D13C0E0740EB4
:1006EE0014120331D0E0C0E0744C1202EED0E022BE
:1006FE007460C395565054C3E5529450E55394001C
:10070E005049854645854744754200C202C0E07493
:10071E000114120331D0E0C083C082C0E090040EF9
:10072E00120324D0E0D082D083C0E07401141203EF
:10073E002FD0E0C083C082C0E090041F120324D0EB
:10074E00E0D082D0831208171209B9227480955214
:10075E00740295535049854645854744754200C2FB
:10076E0002C0E0740114120331D0E0C083C082C015
:10077E00E0900430120324D0E0D082D083C0E07425
:10078E00011412032FD0E0C083C082C0E090041F7A
:10079E00120324D0E0D082D08312081712086D22E3
:1007AE007554D07555F9B28CC0027AFA1202A9D0DE
:1007BE0002B28C7554D375559CB28CC0027AFA1263
:1007CE0002A9D002B28C7554D07555F9B28CC00204
:1007DE007AFA1202A9D002B28C7554D375559CB216
:1007EE008CC0027AFA1202A9D002B28C7554D87556
:1007FE005574B28CC0027AFA1202A9D002C0027AE3
:10080E00FA1202A9D002C28C227554D8755574B250
:10081E008CC0027A641202A9D002B28CC0027A3263
:10082E001202A9D002B28C7554CE75552DB28CC061
:10083E00027A641202A9D002B28CC0027A3212027B
:10084E00A9D002B28C20C511C0027A321202A9D0F0
:10085E000220C50530C5FD8003020817C28C22C0D8
:10086E00E0740114120331D0E0C083C082C0E09066
:10087E000430120324D0E0D082D083C0E07401147F
:10088E0012032FD0E0C083C082C0E09003DB1203BE
:10089E0024D0E0D082D083C0E074071412032FD08E
:1008AE00E0C000A844120336D000C0E0740A14124F
:1008BE00032FD0E0C000A845120336D00020C5118A
:1008CE00C0027A321202A9D00220C50530C5FD80C1
:1008DE00030208CBD282D285D284D286D2872275E9
:1008EE0054D07555F9B28CC0027AFA1202A9D00210
:1008FE00B28C7554C1755539B28CC0027AFA120297
:10090E00A9D002B28C7554A17555F0B28CC0027A82
:10091E00FA1202A9D002B28C7554B575555AB28C22
:10092E00C0027AFA1202A9D002B28C22C0E074017F
:10093E0014120331D0E0C083C082C0E09004411293
:10094E000324D0E0D082D0837554D8755574B28C00
:10095E0020C511C0027A321202A9D00220C505307C
:10096E00C5FD800302095EC28C227554D375559C59
:10097E00B28CC0027A501202A9D002B28CC0027A96
:10098E00321202A9D002D55BE1C28C227554C47515
:10099E0055C0B28CC0027A641202A9D002B28CC0C9
:1009AE00027A321202A9D002C28C22C0E074011463
:1009BE00120331D0E0C083C082C0E090041F120346
:1009CE0024D0E0D082D083C0E074011412032FD063
:1009DE00E0C083C082C0E09003DB120324D0E0D0DD
:1009EE0082D083C0E074071412032FD0E0C000A899
:1009FE0044120336D000C0E0740A1412032FD0E064
:100A0E00C000A845120336D00020C511C0027A32AC
:100A1E001202A9D00220C50530C5FD8003020A17B7
:100A2E00D282D285D284D286D28722C0E0740114BB
:100A3E00120331D0E0C083C082C0E09003CA12031B
:100A4E0024D0E0D082D083C0E074011412032FD0E2
:100A5E00E0C083C082C0E09003DB120324D0E0D05C
:100A6E0082D083C0E074071412032FD0E0C000A818
:100A7E0044120336D000C0E0740A1412032FD0E0E3
:100A8E00C000A845120336D0001208ED20A411C0F4
:100A9E00027A321202A9D00220A40530A4FD8003EE
:100AAE00020AB4120AF020C511C0027A321202A94B
:100ABE00D00220C50530C5FD8003020A9AD282D22B
:100ACE0085D284D286D28722300602B282300702C5
:100ADE00B284300802B285300902B286300A02B200
:100AEE008722C0E074011412032FD0E0C083C082AD
:100AFE00C0E09004C9120324D0E0D082D083C0E0BD
:100B0E00740114120331D0E0C083C082C0E090049F
:100B1E0052120324D0E0D082D083C0027AFA12029D
:100B2E00A9D002C0027AFA1202A9D002C0027AFA41
:100B3E001202A9D002C0E0740114120331D0E0C039
:100B4E0083C082C0E0900463120324D0E0D082D030
:100B5E0083C0027AFA1202A9D002C0E07401141204
:100B6E000331D0E0C083C082C0E09004741203242D
:100B7E00D0E0D082D083C0027AFA1202A9D002C08D
:100B8E00E0740114120331D0E0C083C082C0E09043
:100B9E000485120324D0E0D082D083C0027AFA12E8
:100BAE0002A9D002C0E0740114120331D0E0C08358
:100BBE00C082C0E0900496120324D0E0D082D0838D
:100BCE00C0027AFA1202A9D002C0E0740114120314
:100BDE0031D0E0C083C082C0E09004A7120324D0BD
:100BEE00E0D082D083C0027AFA1202A9D002C0E00D
:100BFE00740114120331D0E0C083C082C0E09004AF
:100C0E00B8120324D0E0D082D083C0027AFA120246
:100C1E00A9D0022275817F75C1001205001205222E
:100C2E0012059A1204E2D2AF1202F8D20075320007
:100C3E007546007547007542007550007548507531
:100C4E004901754A60754C20754D02754E457542C9
:100C5E0000755600755B06755200755C00C206C2C3
:100C6E0007C208C209C20AC20BC20DD20CD283C27D
:100C7E0002C28CC0E0740114120331D0E0C083C0F4
:100C8E0082C0E0900375120324D0E0D082D083C0DE
:100C9E00E074011412032FD0E0C083C082C0E09034
:100CAE0003FD120324D0E0D082D083C0027AFA1260
:100CBE0002A9D002C282C287C0027AFA1202A9D059
:100CCE0002C284C286C0027AFA1202A9D002C2857A
:100CDE00C0027AFA1202A9D002D282D285D284D26E
:100CEE0086D287D203D204D20520A411C0027A3252
:100CFE001202A9D00220A40530A4FD8003020D2308
:100D0E00E5502401B40506E4F550020E76F55002C6
:100D1E000E76020E1A200DFA20A511C0027A32129A
:100D2E0002A9D00220A50530A5FD8003020D9AE58B
:100D3E0050B40110E5482401D4F548E5493400F5D6
:100D4E0049020E76C3E550B40213E54A2401D4B429
:100D5E006406E4F54A020E76F54A020E76C3E550B5
:100D6E00B40310E54C2401D4F54CE54D3400F54D9B
:100D7E00020E76C3E550B4049CE54E2401D4B4644F
:100D8E0006E4F54E020E76F54E020E7620A711C041
:100D9E00027A321202A9D00220A70530A7FD8003E5
:100DAE00020E1AE550B40116C3E5482499D4B401D5
:100DBE000774C8F548020E76C3F548020E76C3E5F1
:100DCE0050B40214E54A2499D4B400077464F54A69
:100DDE00020E76F54A020E76C3E550B40314E54CC6
:100DEE002499D4B4000774C8F54C020E76F54C0263
:100DFE000E76C3E550B40494E54E2499D4B400079E
:100E0E007464F54E020E76F54E020E7620A611C0D3
:100E1E00027A321202A9D00220A60530A6FD800366
:100E2E00020E36B202020E7620C511C0027A3212BE
:100E3E0002A9D00220C50530C5FD8003020E52B2B4
:100E4E000B020E76208011C0027A321202A9D00255
:100E5E002080053080FD8003020E6EB20D020E76EC
:100E6E003000028003020CF7C3C200C0E07401140C
:100E7E0012032FD0E0C083C082C0E09003EC1203B7
:100E8E0024D0E0D082D083C0E0740F1412032FD090
:100E9E00E0C000A860120336D000200C13C0E0742E
:100EAE000E1412032FD0E0C0E0742D1202EED0E02B
:100EBE00300C13C0E0740E1412032FD0E0C0E07497
:100ECE002B1202EED0E0200B2FC0E0740714120399
:100EDE002FD0E0C000A853120336D000C000A85295
:100EEE00120336D000C0E0740C1412032FD0E0C0F1
:100EFE00E074431202EED0E0300B3212062EC0E048
:100F0E0074071412032FD0E0C000A85D120336D070
:100F1E0000C000A85C120336D000C0E0740C14129E
:100F2E00032FD0E0C0E0744B1202EED0E0E550B4D7
:100F3E00005EC0E0740114120331D0E0C083C082A1
:100F4E00C0E09003DB120324D0E0D082D083C0E057
:100F5E00740714120331D0E0C000A847120336D034
:100F6E0000C0E0740A14120331D0E0C000A846128B
:100F7E000336D000C0E0740F14120331D0E0C0006D
:100F8E00A842120336D0001206D112063F02108C70
:100F9E00E550B4013BC0E0740114120331D0E0C03F
:100FAE0083C082C0E0900386120324D0E0D082D0AA
:100FBE0083C0E0740B14120331D0E0C000A84912B4
:100FCE000336D000C000A848120336D00002108CA1
:100FDE00E550B40232C0E0740114120331D0E0C007
:100FEE0083C082C0E0900397120324D0E0D082D059
:100FFE0083C0E0740B14120331D0E0C000A84A1273
:10100E000336D00002108CE550B4033BC0E07401EF
:10101E0014120331D0E0C083C082C0E09003A81246
:10102E000324D0E0D082D083C0E0740C14120331BC
:10103E00D0E0C000A84D120336D000C000A84C125C
:10104E000336D00002108CE550B40432C0E07401B7
:10105E0014120331D0E0C083C082C0E09003B912F5
:10106E000324D0E0D082D083C0E0740D141203317B
:10107E00D0E0C000A84E120336D00002108CE5421C
:10108E00B40022755700D283D2053002157400F5D4
:10109E0046F5477542017556001207AEC203C204EB
:1010AE00C2830211DFE542B4012BD206C283D20500
:1010BE001206FEC312075AC3E5489552E5499553E9
:1010CE00501075420275560012099A12099AC206FC
:1010DE00C2820211B2E542B4022FC205C282D20709
:1010EE0012075AC3755702755808E54AC3955650EC
:1010FE0015D283755B0675420312099A12099A126C
:10110E00099AC207C2840211B2E542B4033912072A
:10111E005AC3C283D208D205755600C3E54C955208
:10112E00E54D9553501E754204D283C203C204C2CC
:10113E008375560012099A12099A12099A12099A7F
:10114E00C208C2850211B2B4043312075AC37557CE
:10115E0002755808D209C205E54EC39556501B7547
:10116E004205755600D283C209C28612093A120987
:10117E009A12099A12099A12099A0211B2B4052406
:10118E0012075AC3D283D205D20AC3E5529460E540
:10119E00539400500C754200C202C20AC287120953
:1011AE00780211B220022A754200D283D2058547F9
:1011BE0044854645120A39D282D285D284D286D24D
:1011CE0087D203D204D205C206C207C208C209C220
:0411DE000A020CF7FE
:00000001FF
