:030000000204BC3B
:0100030032CA
:03000B00020434B8
:0100130032BA
:01001B0032B2
:0100230032AA
:03002B0002045478
:10002E00C00078B10000D8FCD00022C000C0017919
:10003E002D78A6D8FED9FADAF6D001D00022D294C5
:10004E0012002EC29422A2E792B5A2E692B4A2E5C5
:10005E0092B3A2E492B212004C12002EA2E392B519
:10006E00A2E292B4A2E192B3A2E092B212004C22AA
:10007E00D292020054C292020054C294C2937433BC
:10008E0012008374331200837432120083742812A8
:10009E000083740C1200837401120083C0027A0272
:1000AE00120039D00222E493600612007EA380F67D
:1000BE002244404480020083C0E0E8C4540F443020
:1000CE0012007EE8540F443012007ED0E022C0E0D1
:1000DE00E8C4540F44301200F2E8540F44301200BA
:1000EE00F2D0E0223099FDC299F59922E493600690
:0700FE001200F2A380F622BC
:10010500C0E0C0D0C000C001C002E4F53DF53EF539
:100115003FF540F5417A20E538A2E779047835E6E0
:1001250033F608D9FA7905783DE636D4F608D9F9D3
:10013500DAE5D002D001D000D0D0D0E022C0E0C0B6
:10014500D0C000C001C002E4F53DF53EF53FF540E5
:10015500F5417A20E538A2E779047835E633F608E3
:10016500D9FA7905783DC0D0E6243320E70224D0BA
:1001750020E30224FDD0D033F608D9EADAD6D0023E
:10018500D001D000D0D0D0E022C0E0C0D0C000C0A7
:1001950001C0027A207905C37841E613C0D030E763
:1001A5000224D030E30224FDF618D0D0D9EC79042E
:1001B5007838E613F618D9FADADBD002D001D00088
:1001C500D0D0D0E022C0E0C0D0E5352539F535E501
:1001D50036353AF536E537353BF537E538353CF50F
:1001E50038D0D0D0E022C0E0C0D0C3E5359539F590
:1001F50035E536953AF536E537953BF537E53895E6
:100205003CF538D0D0D0E022C0E0C0D0C3E535956C
:1002150039E536953AE537953BE538953C9202D078
:10022500D0D0E022C0E0C0D0C3E5399535E53A9598
:1002350036E53B9537E53C95389202D0D0D0E022A3
:10024500C0E0C0D0C202C3E53995357014E53A95D2
:1002550036700EE53B95377008E53C95387002D24F
:1002650002D0D0D0E0221202452002030202292248
:1002750012024520020302020D22C0E0C0F0C0D0E8
:10028500C000C001C002C003E5358539F0A4F8A956
:10029500F0E5368539F0A429F9E435F0FAE5358538
:1002A5003AF0A429F9E5F03AFAE433FBE537853964
:1002B500F0A42AFAE5F03BFBE536853AF0A42AFAE4
:1002C500E5F03BFBE535853BF0A42AFAE5F03BFB81
:1002D500E5388539F0A42BFBE537853AF0A42BFBEF
:1002E500E536853BF0A42BFBE535853CF0A42BFBDF
:1002F5008B388A3789368835D003D002D001D000B3
:10030500D0D0D0F0D0E022C0E0C0D0C000C001C045
:1003150002C003C0047C20E4F8F9FAFBC3E53533D9
:10032500F535E53633F536E53733F537E53833F565
:1003350038E833F8E933F9EA33FAEB33FBC3E895E8
:1003450039E9953AEA953BEB953C4013E89539F840
:10035500E9953AF9EA953BFAEB953CFB433501DC27
:10036500BBD004D003D002D001D000D0D0D0E02241
:1003750053454C45435420504152414D45544552F7
:1003850000534F414B2054454D503A207878782002
:100395004300534F414B2054494D453A20787878D6
:1003A5002053005245464C4F572054454D503A78FE
:1003B500787878005245464C4F572054494D453A78
:1003C500787878780053544152543F0054696D65EC
:1003D5003A20783A78780920200054656D703A20E3
:1003E5007878782043202078782000494E49544970
:1003F500414C495A494E4720202020002020414C9D
:1004050041524D20414C41524D2020002020505258
:1004150045535320424F4F5421202000E58954F085
:100425004401F589758CEA758AE8D2A9D28C22C275
:100435008C85508C85518AD28CB2B73275C80075BF
:10044500CBA975CA9AE4F530F531D2ADD2CA22C22C
:10045500CFB2B6C0E0C0D00530E53070020531E559
:1004650030B4E84EE531B40349D200E4F530F53156
:10047500E532E5462401D4B46024E4F546E5472495
:1004850001D4B46021E4F547E5432401D4B4120056
:10049500B413197401F543E4F547F5468014C3D444
:1004A500F532F546800CC3D4F5478006C3D4F54331
:1004B5008000D0D0D0E03275817F75C10012042153
:1004C500120441D2AF120088C0E07401141200C1B9
:1004D500D0E0C083C082C0E09003751200B4D0E0C4
:1004E500D082D083C0E07401141200BFD0E0C08375
:1004F500C082C0E09003F01200B4D0E0D082D08377
:10050500C201753200754600754700754300754296
:1005150000754D00754800754A00754B00754C0017
:10052500C28C20A411C0027A32120039D00220A454
:100535000530A4FD8003020550E54D2401B40506F0
:10054500E4F54D02066EF54D02066E20A611C002B9
:100555007A32120039D00220A60530A6FD800302AA
:1005650005CAE54DB40113E5482401D4B4C906E430
:10057500F54802066EF54802066EC3E54DB4021352
:10058500E54A2401D4B46406E4F54A02066EF54A48
:1005950002066EC3E54DB40313E54B2401D4B4C97B
:1005A50006E4F54B02066EF54B02066EC3E54DB447
:1005B5000499E54C2401D4B46406E4F54C02066EB6
:1005C500F54C02066E20A511C0027A32120039D010
:1005D5000220A50530A5FD800302064AE54DB401BC
:1005E50016C3E5482499D4B4010774C8F548020632
:1005F5006EC3F54802066EC3E54DB40214E54A9490
:1006050001D4B400077464F54A02066EF54A020681
:100615006EC3E54DB40314E54B9401D4B4000774DF
:10062500C8F54B02066EF54B02066EC3E54DB404E4
:1006350094E54C9401D4B400077464F54C02066E3D
:10064500F54C02066E208411C0027A32120039D0B0
:10065500022084053084FD8003020666D20102066D
:100665006E3000028003020527C3C200C0E074019A
:10067500141200BFD0E0C083C082C0E09003DF1237
:1006850000B4D0E0D082D083C0E07407141200BF5C
:10069500D0E0C000A84E1200C6D000C0E0740E1411
:1006A5001200BFD0E0C000A84D1200C6D000E54D35
:1006B500B40045C0E07401141200C1D0E0C083C08D
:1006C50082C0E09003D11200B4D0E0D082D083C0C4
:1006D500E07407141200C1D0E0C000A8471200C69C
:1006E500D000C0E0740A141200C1D0E0C000A846D2
:1006F5001200C6D0000207E2E54DB4013BC0E0742C
:1007050001141200C1D0E0C083C082C0E09003860E
:100715001200B4D0E0D082D083C0E0740C14120073
:10072500C1D0E0C000A8491200C6D000C000A8484A
:100735001200C6D0000207E2E54DB40232C0E074F3
:1007450001141200C1D0E0C083C082C0E0900397BD
:100755001200B4D0E0D082D083C0E0740C14120033
:10076500C1D0E0C000A84A1200C6D0000207E2E5E9
:100775004DB40332C0E07401141200C1D0E0C0834F
:10078500C082C0E09003A81200B4D0E0D082D0832C
:10079500C0E0740D141200C1D0E0C000A84B1200D7
:1007A500C6D0000207E2E54DB40432C0E07401147E
:1007B5001200C1D0E0C083C082C0E09003B912002E
:1007C500B4D0E0D082D083C0E0740D141200C1D043
:1007D500E0C000A84C1200C6D0000207E2020527BF
:00000001FF
