:030000000204BF38
:0100030032CA
:03000B00020437B5
:0100130032BA
:01001B0032B2
:0100230032AA
:03002B0002045775
:10002E00C0E0C0D0C000C001C002E4F53DF53EF511
:10003E003FF540F5417A20E538A2E779047835E6B8
:10004E0033F608D9FA7905783DE636D4F608D9F9AB
:10005E00DAE5D002D001D000D0D0D0E022C0E0C08E
:10006E00D0C000C001C002E4F53DF53EF53FF540BD
:10007E00F5417A20E538A2E779047835E633F608BB
:10008E00D9FA7905783DC0D0E6243320E70224D092
:10009E0020E30224FDD0D033F608D9EADAD6D00216
:1000AE00D001D000D0D0D0E022C0E0C0D0C000C07F
:1000BE0001C0027A207905C37841E613C0D030E73B
:1000CE000224D030E30224FDF618D0D0D9EC790406
:1000DE007838E613F618D9FADADBD002D001D00060
:1000EE00D0D0D0E022C0E0C0D0E5352539F535E5D9
:1000FE0036353AF536E537353BF537E538353CF5E7
:10010E0038D0D0D0E022C0E0C0D0C3E5359539F567
:10011E0035E536953AF536E537953BF537E53895BD
:10012E003CF538D0D0D0E022C0E0C0D0C3E5359544
:10013E0039E536953AE537953BE538953C9201D051
:10014E00D0D0E022C0E0C0D0C3E5399535E53A9570
:10015E0036E53B9537E53C95389201D0D0D0E0227C
:10016E00C0E0C0D0C201C3E53995357014E53A95AB
:10017E0036700EE53B95377008E53C95387002D227
:10018E0001D0D0D0E02212016E20010302015222D2
:10019E0012016E20010302013622C0E0C0F0C0D071
:1001AE00C000C001C002C003E5358539F0A4F8A92E
:1001BE00F0E5368539F0A429F9E435F0FAE5358510
:1001CE003AF0A429F9E5F03AFAE433FBE53785393C
:1001DE00F0A42AFAE5F03BFBE536853AF0A42AFABC
:1001EE00E5F03BFBE535853BF0A42AFAE5F03BFB59
:1001FE00E5388539F0A42BFBE537853AF0A42BFBC7
:10020E00E536853BF0A42BFBE535853CF0A42BFBB6
:10021E008B388A3789368835D003D002D001D0008A
:10022E00D0D0D0F0D0E022C0E0C0D0C000C001C01D
:10023E0002C003C0047C20E4F8F9FAFBC3E53533B1
:10024E00F535E53633F536E53733F537E53833F53D
:10025E0038E833F8E933F9EA33FAEB33FBC3E895C0
:10026E0039E9953AEA953BEB953C4013E89539F818
:10027E00E9953AF9EA953BFAEB953CFB433501DCFF
:10028E00BBD004D003D002D001D000D0D0D0E02219
:10029E00C00078B10000D8FCD00022C000C00179A7
:1002AE002D78A6D8FED9FADAF6D001D00022D29453
:1002BE0012029EC29422A2E792B5A2E692B4A2E5E1
:1002CE0092B3A2E492B21202BC12029EA2E392B5C3
:1002DE00A2E292B4A2E192B3A2E092B21202BC22C6
:1002EE00D2920202C4C2920202C4C294C293743366
:1002FE001202F374331202F374321202F3742812E0
:10030E0002F3740C1202F374011202F3C0027A02A9
:10031E001202A9D00222E49360061202EEA380F626
:10032E0022444044800202F3C0E0E8C4540F44303B
:10033E001202EEE8540F44301202EED0E022C0E07A
:10034E00E8C4540F4430120362E8540F44301203D1
:10035E0062D0E0223099FDC299F59922E4936006AD
:10036E00120362A380F62253454C4543542050415C
:10037E0052414D4554455200536F616B54656D703B
:10038E003A2078787878204300536F616B54696D0A
:10039E00653A20787820202053005265666C6F777E
:1003AE0054656D703A7878787843005265666C6F54
:1003BE007754696D653A2078782053005354415232
:1003CE00543F0054696D653A2078783A7878092060
:1003DE00200054656D703A207878787820437878CC
:1003EE00787800494E495449414C495A494E472064
:1003FE00202020002020414C41524D20414C4152A2
:10040E004D2020002020505245535320424F4F5430
:10041E0021202000E58954F04401F589758CEA7598
:10042E008AE8D2A9D28CD2AF22C28C85548C855543
:10043E008AD28CB2B73275C80075CBA975CA9AE448
:10044E00F530F531D2ADD2CA22C2CFB2B6C0E0C0BD
:10045E00D00530E53070020531E530B4E84EE531B7
:10046E00B40349D200E4F530F531E532E546240116
:10047E00D4B46024E4F546E5472401D4B46021E405
:10048E00F547E5432401D4B41200B413197401F5F1
:10049E0043E4F547F5468014C3D4F532F546800C97
:1004AE00C3D4F5478006C3D4F5438000D0D0D0E046
:1004BE003275817F75C100120422120444D2AF122C
:1004CE0002F8C0E0740114120331D0E0C083C08280
:1004DE00C0E0900375120324D0E0D082D083C0E038
:1004EE0074011412032FD0E0C083C082C0E09003C9
:1004FE00F1120324D0E0D082D083D2007532007581
:10050E004600754700754200755000754896754A4D
:10051E003C754CDC754E2D754200C202C28C20A477
:10052E0011C0027A321202A9D00220A40530A4FD15
:10053E008003020555E5502401B40506E4F550028A
:10054E000673F55002067320A511C0027A3212020C
:10055E00A9D00220A50530A5FD80030205CFE550E8
:10056E00B40113E5482401D4B4C906E4F5480206E3
:10057E0073F548020673C3E550B40213E54A24012D
:10058E00D4B46406E4F54A020673F54A020673C350
:10059E00E550B40313E54C2401D4B4C906E4F54C7C
:1005AE00020673F54C020673C3E550B40499E54E8A
:1005BE002401D4B46406E4F54E020673F54E020629
:1005CE007320A711C0027A321202A9D00220A70509
:1005DE0030A7FD800302064FE550B40116C3E5486F
:1005EE002499D4B4010774C8F548020673C3F548BC
:1005FE00020673C3E550B40214E54A2499D4B4003C
:10060E00077464F54A020673F54A020673C3E55091
:10061E00B40314E54C2499D4B4000774C8F54C0205
:10062E000673F54C020673C3E550B40494E54E24EC
:10063E0099D4B400077464F54E020673F54E0206A3
:10064E007320A611C0027A321202A9D00220A6058A
:10065E0030A6FD800302066BD20202067330000242
:10066E00800302052CC3C200C0E074011412032FD4
:10067E00D0E0C083C082C0E09003E0120324D0E03B
:10068E00D082D083C0E074071412032FD0E0C000D4
:10069E00A852120336D000C0E0740C1412032FD0EF
:1006AE00E0C000A842120336D000C0E0740E14124F
:1006BE00032FD0E0C000A850120336D000E550B48E
:1006CE000045C0E0740114120331D0E0C083C08233
:1006DE00C0E09003D1120324D0E0D082D083C0E0DA
:1006EE00740714120331D0E0C000A847120336D0AD
:1006FE0000C0E0740A14120331D0E0C000A8461204
:10070E000336D000020803E550B4013BC0E074018B
:10071E0014120331D0E0C083C082C0E09003861271
:10072E000324D0E0D082D083C0E0740B14120331C6
:10073E00D0E0C000A849120336D000C000A848126D
:10074E000336D000020803E550B40232C0E0740153
:10075E0014120331D0E0C083C082C0E09003971220
:10076E000324D0E0D082D083C0E0740B1412033186
:10077E00D0E0C000A84A120336D000020803E550AC
:10078E00B4033BC0E0740114120331D0E0C083C047
:10079E0082C0E09003A8120324D0E0D082D083C0A0
:1007AE00E0740C14120331D0E0C000A84C120336D2
:1007BE00D000C000A84D120336D000020803E55049
:1007CE00B40432C0E0740114120331D0E0C083C00F
:1007DE0082C0E09003B9120324D0E0D082D083C04F
:1007EE00E0740D14120331D0E0C000A84E1203368F
:1007FE00D000020803E542B4000C75570030020326
:10080E00754201020887E542B401167557647556A4
:10081E0000E548C39552500675420275560002080F
:10082E0087E542B40210755714E54AC39556500336
:10083E00754203020887E542B40316755764755670
:10084E0000E54CC3955250067542047556000208D9
:10085E0087B40410755714E54EC395565003754270
:10086E0005020887B40512755700743CC3955250A3
:10087E0005754200C202020887200203754200027B
:02088E00052C37
:00000001FF
