:03000000020AEA07
:0100030032CA
:03000B000204EEFE
:0100130032BA
:01001B0032B2
:0100230032AA
:03002B0002050EBD
:10002E00C0E0C0D0C000C001C002E4F53DF53EF511
:10003E003FF540F5417A20E538A2E779047835E6B8
:10004E0033F608D9FA7905783DE636D4F608D9F9AB
:10005E00DAE5D002D001D000D0D0D0E022C0E0C08E
:10006E00D0C000C001C002E4F53DF53EF53FF540BD
:10007E00F5417A20E538A2E779047835E633F608BB
:10008E00D9FA7905783DC0D0E6243320E70224D092
:10009E0020E30224FDD0D033F608D9EADAD6D00216
:1000AE00D001D000D0D0D0E022C0E0C0D0C000C07F
:1000BE0001C0027A207905C37841E613C0D030E73B
:1000CE000224D030E30224FDF618D0D0D9EC790406
:1000DE007838E613F618D9FADADBD002D001D00060
:1000EE00D0D0D0E022C0E0C0D0E5352539F535E5D9
:1000FE0036353AF536E537353BF537E538353CF5E7
:10010E0038D0D0D0E022C0E0C0D0C3E5359539F567
:10011E0035E536953AF536E537953BF537E53895BD
:10012E003CF538D0D0D0E022C0E0C0D0C3E5359544
:10013E0039E536953AE537953BE538953C9201D051
:10014E00D0D0E022C0E0C0D0C3E5399535E53A9570
:10015E0036E53B9537E53C95389201D0D0D0E0227C
:10016E00C0E0C0D0C201C3E53995357014E53A95AB
:10017E0036700EE53B95377008E53C95387002D227
:10018E0001D0D0D0E02212016E20010302015222D2
:10019E0012016E20010302013622C0E0C0F0C0D071
:1001AE00C000C001C002C003E5358539F0A4F8A92E
:1001BE00F0E5368539F0A429F9E435F0FAE5358510
:1001CE003AF0A429F9E5F03AFAE433FBE53785393C
:1001DE00F0A42AFAE5F03BFBE536853AF0A42AFABC
:1001EE00E5F03BFBE535853BF0A42AFAE5F03BFB59
:1001FE00E5388539F0A42BFBE537853AF0A42BFBC7
:10020E00E536853BF0A42BFBE535853CF0A42BFBB6
:10021E008B388A3789368835D003D002D001D0008A
:10022E00D0D0D0F0D0E022C0E0C0D0C000C001C01D
:10023E0002C003C0047C20E4F8F9FAFBC3E53533B1
:10024E00F535E53633F536E53733F537E53833F53D
:10025E0038E833F8E933F9EA33FAEB33FBC3E895C0
:10026E0039E9953AEA953BEB953C4013E89539F818
:10027E00E9953AF9EA953BFAEB953CFB433501DCFF
:10028E00BBD004D003D002D001D000D0D0D0E02219
:10029E00C00078B10000D8FCD00022C000C00179A7
:1002AE002D78A6D8FED9FADAF6D001D00022D29453
:1002BE0012029EC29422A2E792B5A2E692B4A2E5E1
:1002CE0092B3A2E492B21202BC12029EA2E392B5C3
:1002DE00A2E292B4A2E192B3A2E092B21202BC22C6
:1002EE00D2920202C4C2920202C4C294C293743366
:1002FE001202F374331202F374321202F3742812E0
:10030E0002F3740C1202F374011202F3C0027A02A9
:10031E001202A9D00222E49360061202EEA380F626
:10032E0022444044800202F3C0E0E8C4540F44303B
:10033E001202EEE8540F44301202EED0E022C0E07A
:10034E00E8C4540F4430120362E8540F44301203D1
:10035E0062D0E0223099FDC299F59922E4936006AD
:10036E00120362A380F6225265666C6F774F766534
:10037E006E4374726C6C7200536F616B54656D706A
:10038E003A2078787878204300536F616B54696D0A
:10039E00653A20787820202053005265666C6F777E
:1003AE0054656D703A7878787843005265666C6F54
:1003BE007754696D653A20787820530050726F63D8
:1003CE0065737320636F6D706C6574650054696D31
:1003DE00653A2078783A78782020202020005465DD
:1003EE006D703A20787878782020202020200056D2
:1003FE00657273696F6E20312E312E343262200099
:10040E0057697265206E6F7420696E204F76656E27
:10041E000050726F636573732041626F727465640E
:10042E0021004F70656E204F76656E20446F6F729F
:10043E002E2E004E6174204C696D61706963686187
:10044E00742020004172736C616E20426861747476
:10045E0069202020004D696B65205975616E202042
:10046E00202020202000496E746973686172204933
:10047E00736C616D20200048616D7A612041686D5A
:10048E00656420202020200043656D204B61737031
:10049E00692020202020202000454C454320323961
:1004AE0031205465616D204145000D0A00D2A2C273
:1004BE00A322C0E079007A08E833F892A1D2A3A271
:1004CE00A2E933F9C2A3DAF0D0E022E58954F04470
:1004DE0001F589758CEA758AE8D2A9D28CD2AF2241
:1004EE00C28C85548C85558AD28CB2B73275C800B1
:1004FE0075CBA975CA9AE4F530F531D2ADD2CA22C0
:10050E00C2CFC0E0C0D00530E53070020531E53015
:10051E00B4E84DE531B40348D20085525E85535F91
:10052E00120592120694E5562401D4F5561206A130
:10053E001209C3E4F530F531E532E5462401D4B4B1
:10054E006010E4F546E5472401D4B4600DE4F547A8
:10055E00800EC3D4F532F5468006C3D4F54780002D
:10056E00D0D0D0E03279DE78A6D8FED9FAC28E533A
:10057E00890F438920438780758DF4758BF4D28E55
:10058E0075985222C2A078011204C078801204C05D
:10059E00E95403F53478551204C08933D2A0753866
:1005AE0000753700853436853335753940753A4BCD
:1005BE00753B4C753C001201A87539F4753AFF7500
:1005CE003BBF753C0012023575391C753A00753B00
:1005DE0000753C001200F3853D52853E5312002EED
:1005EE00C000A83E12034CD000C000A83D12034C20
:1005FE00D0009004B812036A227538007537008552
:10060E003436853335753940753A4B753B4C753CF0
:10061E00001201A87539F4753AFF753BBF753C00A1
:10062E0012023575391C753A00753B00753C001287
:10063E0000F3753909753A00753B00753C001201DF
:10064E00A8753905753A00753B00753C00120235E8
:10065E00753920753A00753B00753C001200F3E5C4
:10066E0035D4F55CE536D4F55DC0E074071412039D
:10067E002FD0E0C000A85D120336D000C000A85CE9
:10068E00120336D00022E552955EF560E553955F74
:10069E00F56122E420052A20041520030A85575906
:1006AE0085585AC283D203E559700CD204D283E521
:1006BE005A700AC203C2049401F55980049401F5DC
:1006CE005A227AAA79FA78A6D8FED9FADAF62274DC
:1006DE0060C395565054C3E5529450E55394005060
:1006EE0049854645854744754200C202C0E0740103
:1006FE0014120331D0E0C083C082C0E090040E1209
:10070E000324D0E0D082D083C0E074011412032FF2
:10071E00D0E0C083C082C0E090041F120324D0E05A
:10072E00D082D0831207A21208A6227554D0755516
:10073E00F9B28CC0027AFA1202A9D002B28C7554A8
:10074E00D375559CB28CC0027AFA1202A9D002B2AD
:10075E008C7554D07555F9B28CC0027AFA1202A972
:10076E00D002B28C7554D375559CB28CC0027AFAF5
:10077E001202A9D002B28C7554D8755574B28CC0C1
:10078E00027AFA1202A9D002C0027AFA1202A9D093
:10079E0002C28C227554D8755574B28CC0027A641C
:1007AE001202A9D002B28CC0027A321202A9D00271
:1007BE00B28C20C511C0027A321202A9D00220C515
:1007CE000530C5FD80030207A2C28C227554D07578
:1007DE0055F9B28CC0027AFA1202A9D002B28C7507
:1007EE0054C1755539B28CC0027AFA1202A9D002E0
:1007FE00B28C7554A17555F0B28CC0027AFA120201
:10080E00A9D002B28C7554B575555AB28CC0027A05
:10081E00FA1202A9D002B28C22C0E07401141203A3
:10082E0031D0E0C083C082C0E0900430120324D0E7
:10083E00E0D082D0837554D8755574B28C20C51112
:10084E00C0027A321202A9D00220C50530C5FD8041
:10085E000302084BC28C227554D375559CB28CC0C2
:10086E00027A501202A9D002B28CC0027A3212025F
:10087E00A9D002D55BE1C28C227554C47555C0B2A5
:10088E008CC0027A641202A9D002B28CC0027A32F3
:10089E001202A9D002C28C22C0E0740114120331DC
:1008AE00D0E0C083C082C0E090041F120324D0E0C9
:1008BE00D082D083C0E074011412032FD0E0C08325
:1008CE00C082C0E09003DB120324D0E0D082D0833C
:1008DE00C0E074071412032FD0E0C000A844120326
:1008EE0036D000C0E0740A1412032FD0E0C000A866
:1008FE0045120336D00020C511C0027A321202A969
:10090E00D00220C50530C5FD8003020904D282D273
:10091E0085D284D286D28722C0E0740114120331AC
:10092E00D0E0C083C082C0E09003CA120324D0E09E
:10093E00D082D083C0E074011412032FD0E0C083A4
:10094E00C082C0E09003DB120324D0E0D082D083BB
:10095E00C0E074071412032FD0E0C000A8441203A5
:10096E0036D000C0E0740A1412032FD0E0C000A8E5
:10097E0045120336D0001207DA20A411C0027A32D3
:10098E001202A9D00220A40530A4FD80030209A101
:10099E001209DD20C511C0027A321202A9D002203E
:1009AE00C50530C5FD8003020987D282D285D28467
:1009BE00D286D28722300602B282300702B284304B
:1009CE000802B285300902B286300A02B28722C00E
:1009DE00E074011412032FD0E0C083C082C0E090F7
:1009EE0004A7120324D0E0D082D083C0E074011497
:1009FE00120331D0E0C083C082C0E09004411203E4
:100A0E0024D0E0D082D083C0027AFA1202A9D0029A
:100A1E00C0027AFA1202A9D002C0027AFA1202A910
:100A2E00D002C0E0740114120331D0E0C083C08242
:100A3E00C0E0900452120324D0E0D082D083C002D2
:100A4E007AFA1202A9D002C0E0740114120331D056
:100A5E00E0C083C082C0E0900463120324D0E0D0D3
:100A6E0082D083C0027AFA1202A9D002C0E07401C9
:100A7E0014120331D0E0C083C082C0E0900474121F
:100A8E000324D0E0D082D083C0027AFA1202A9D019
:100A9E0002C0E0740114120331D0E0C083C082C0E2
:100AAE00E0900485120324D0E0D082D083C0027A75
:100ABE00FA1202A9D002C0E0740114120331D0E080
:100ACE00C083C082C0E0900496120324D0E0D0828E
:100ADE00D083C0027AFA1202A9D0022275817F75E4
:100AEE00C1001204D91204FB1205731204BBD2AF5B
:100AFE001202F8D200753200754600754700754235
:100B0E0000755000754850754901754A60754C2046
:100B1E00754D02754E45754200755600755B06752E
:100B2E005200755C00C206C207C208C209C20AC2E0
:100B3E000BD283C202C28CC0E0740114120331D0F6
:100B4E00E0C083C082C0E0900375120324D0E0D0D1
:100B5E0082D083C0E074011412032FD0E0C083C092
:100B6E0082C0E09003FD120324D0E0D082D083C077
:100B7E00027AFA1202A9D002C282C287C0027AFA9F
:100B8E001202A9D002C284C286C0027AFA1202A947
:100B9E00D002C285C0027AFA1202A9D002D282D243
:100BAE0085D284D286D287D203D204D20520A41154
:100BBE00C0027A321202A9D00220A40530A4FD8010
:100BCE0003020BE4E5502401B40506E4F550020DD2
:100BDE0018F550020D1820A511C0027A321202A982
:100BEE00D00220A50530A5FD8003020C58E550B4B7
:100BFE000110E5482401D4F548E5493400F54902D1
:100C0E000D18C3E550B40213E54A2401D4B46406AA
:100C1E00E4F54A020D18F54A020D18C3E550B40367
:100C2E0010E54C2401D4F54CE54D3400F54D020D84
:100C3E0018C3E550B4049FE54E2401D4B46406E411
:100C4E00F54E020D18F54E020D1820A711C0027AAE
:100C5E00321202A9D00220A70530A7FD8003020C94
:100C6E00D8E550B40116C3E5482499D4B4010774ED
:100C7E00C8F548020D18C3F548020D18C3E550B467
:100C8E000214E54A2499D4B400077464F54A020D9F
:100C9E0018F54A020D18C3E550B40314E54C249917
:100CAE00D4B4000774C8F54C020D18F54C020D189B
:100CBE00C3E550B40494E54E2499D4B4000774648B
:100CCE00F54E020D18F54E020D1820A611C0027A2F
:100CDE00321202A9D00220A60530A6FD8003020C16
:100CEE00F4B202020D1820C511C0027A321202A906
:100CFE00D00220C50530C5FD8003020D10B20B02D7
:100D0E000D183000028003020BBBC3C200C0E0749A
:100D1E00011412032FD0E0C083C082C0E09003EC18
:100D2E00120324D0E0D082D083C0E0740F141203DB
:100D3E002FD0E0C000A842120336D000200B2FC0E7
:100D4E00E074071412032FD0E0C000A8531203362C
:100D5E00D000C000A852120336D000C0E0740C14AC
:100D6E0012032FD0E0C0E074431202EED0E0300B3D
:100D7E0032120607C0E074071412032FD0E0C00031
:100D8E00A85D120336D000C000A85C120336D00056
:100D9E00C0E0740C1412032FD0E0C0E074461202AF
:100DAE00EED0E0E550B40045C0E0740114120331FA
:100DBE00D0E0C083C082C0E09003DB120324D0E0F9
:100DCE00D082D083C0E0740714120331D0E0C0008B
:100DDE00A847120336D000C0E0740A14120331D0B3
:100DEE00E0C000A846120336D000020EE9E550B46A
:100DFE00013BC0E0740114120331D0E0C083C08205
:100E0E00C0E0900386120324D0E0D082D083C0E0ED
:100E1E00740B14120331D0E0C000A849120336D06F
:100E2E0000C000A848120336D000020EE9E550B407
:100E3E000232C0E0740114120331D0E0C083C082CC
:100E4E00C0E0900397120324D0E0D082D083C0E09C
:100E5E00740B14120331D0E0C000A84A120336D02E
:100E6E0000020EE9E550B4033BC0E0740114120316
:100E7E0031D0E0C083C082C0E09003A8120324D01A
:100E8E00E0D082D083C0E0740C14120331D0E0C0E5
:100E9E0000A84D120336D000C000A84C120336D065
:100EAE0000020EE9E550B40432C0E07401141203DE
:100EBE0031D0E0C083C082C0E09003B9120324D0C9
:100ECE00E0D082D083C0E0740D14120331D0E0C0A4
:100EDE0000A84E120336D000020EE9E542B40022FD
:100EEE00755700D283D2053002157400F546F547CA
:100EFE00754201755600120739C203C204C283023D
:100F0E001028E542B40127D206C283D2051206DDAF
:100F1E00C3E5489552E549955350107542027556F2
:100F2E0000120887120887C206C282020FFBE54232
:100F3E00B4022BC205C282D207755702755808E556
:100F4E004AC395565015D283755B06754203120837
:100F5E0087120887120887C207C284020FFBE54278
:100F6E00B40335C283D208D205755600C3E54C953D
:100F7E0052E54D9553501E754204D283C203C204EE
:100F8E00C283755600120887120887120887120846
:100F9E0087C208C285020FFBB4042F75570275581D
:100FAE0008D209C205E54EC39556501B754205750C
:100FBE005600D283C209C286120827120887120869
:100FCE0087120887120887020FFBB40520D283D23E
:100FDE0005D20AC3E5529460E5539400500C754255
:100FEE0000C202C20AC287120865020FFB20022A43
:100FFE00754200D283D2058547448546451209269F
:10100E00D282D285D284D286D287D203D204D2059E
:0D101E00C206C207C208C209C20A020BBB0B
:00000001FF
